:0400000040EF3FF09E
:107E80000001A4EF3FF0016EACA2FED701C0ADFF30
:107E90001200026E080E036E000E046ED8900234BB
:107EA0000434046ED89002360150045CD8A002D08D
:107EB0000150045E032EF2D704501200066E000E2D
:107EC000086E0550D8B415D0010E076E03D0D890B7
:107ED0000536072A05AEFBD7D89008360550065C54
:107EE000D8A003D00550065E0880D8900532072E32
:107EF000F3D708501200000E066E000E056E0350F8
:107F00000410D8B41CD0010E076E04D0D8900336EC
:107F10000436072A04AEFAD7D89005360636035041
:107F2000015C04500258D8A005D00350015E0450F3
:107F3000025A0580D89004320332072EEDD705C0CF
:107F400001F006C002F01200700ED36E030E096E2F
:107F5000980EE82EFED7092EFCD795908C90200E17
:107F6000AC6E800EAB6E000EB86E0C0EAF6E900E47
:107F7000CD6E040EBD6E000ECF6E000ECE6E9E94C2
:107F80008380060EE82EFED700D0839082A4FED711
:107F9000CD809EA4FED7CD90BECF01F0BFCF02F022
:107FA000000E046E3A0E036E7BEC3FF001500B6E38
:107FB000640E056E0B505EEC3FF0300F43EC3FF06B
:107FC0000A0E056E640E016E0B5049EC3FF05EEC3C
:107FD0003FF0300F43EC3FF00A0E016E0B5049ECBE
:107FE0003FF0300F43EC3FF00B0E0A6E260E096E89
:107FF0005E0EE82EFED7092EFCD70A2EFAD7B9D787
:020000040020DA
:08000000FFFFFFFFFFFFFFFF00
:020000040030CA
:0E00000000091F1EFF8385FF0FC00FE00F4099
:00000001FF
